:020000040000FA
:040000000EEF00F00F
:040008000AEF23F0E8
:1000180055EF28F0D0EF20F00001E451030D6F00F8
:10002800CCFF0EF06F00D0FF0FF0E351300DA00EA3
:10003800106E060E116E010E1026000E1122F350DE
:100048001026F45011220E501024D96E0F50112092
:10005800DA6E140EDF6EE451030D6F00CCFF0EF064
:100068006F00D0FF0FF0E351300DA00E106E060E9A
:10007800116EF3501026F45011220E501024D96E30
:100088000F501120DA6E140EDF6EE451030D6F006D
:10009800CCFF0EF06F00D0FF0FF0E351300DA00E33
:1000A800106E060E116E020E1026000E1122F3506D
:1000B8001026F45011220E501024D96E0F50112022
:1000C800DA6E140EDF6EEC51030D6F00CCFF0EF0EC
:1000D8006F00D0FF0FF0EB51300DFE0E106EFF0ECB
:1000E800116EA00E126E060E136E105012261150CD
:1000F8001322F3501226F45013220E501224D96EF4
:100108000F501320DA6E190EDF6EEC51030D6F00DD
:10011800CCFF0EF06F00D0FF0FF0EB51300DFD0E4D
:10012800106EFF0E116EA00E126E060E136E10509A
:10013800122611501322F3501226F45013220E5097
:100148001224D96E0F501320DA6E010EDF6EEC51B7
:10015800030D6F00CCFF0EF06F00D0FF0FF0EB51D6
:10016800300DFF0E106EFF0E116EA00E126E060EF1
:10017800136E1050122611501322F3501226F45009
:1001880013220E501224D96E0F501320DA6E010E6E
:10019800DF6EEC51030D6F00CCFF0EF06F00D0FF47
:1001A8000FF0EB51300DA00E106E060E116E010E01
:1001B8001026000E1122F3501026F45011220E5072
:1001C8001024D96E0F501120DA6E190EDF6EEC5123
:1001D800030D6F00CCFF0EF06F00D0FF0FF0EB5156
:1001E800300DA00E106E060E116EF3501026F4504E
:1001F80011220E501024D96E0F501120DA6E010E04
:10020800DF6EEC51030D6F00CCFF0EF06F00D0FFD6
:100218000FF0EB51300DA00E106E060E116E020E8F
:100228001026000E1122F3501026F45011220E5001
:100238001024D96E0F501120DA6E010EDF6EEC51CA
:10024800030D6F00CCFF0EF06F00D0FF0FF0EB51E5
:10025800300DA00E106E060E116E040E1026000E44
:100268001122F3501026F45011220E501024D96E8A
:100278000F501120DA6E190EDF6EEC51030D6F006E
:10028800CCFF0EF06F00D0FF0FF0EB51300DA00E39
:10029800106E060E116E030E1026000E1122F3507A
:1002A8001026F45011220E501024D96E0F50112030
:1002B800DA6E010EDF6EEC51030D6F00CCFF0EF00D
:1002C8006F00D0FF0FF0EB51300DA00E106E060E30
:1002D800116E050E1026000E1122F3501026F45050
:1002E80011220E501024D96E0F501120DA6E010E13
:1002F800DF6EEA51030D6F00CCFF0EF06F00D0FFE8
:100308000FF0E951300DD10E106EFF0E116EA00ED8
:10031800126E060E136E1050122611501322F3504F
:100328001226F45013220E501224D96E0F501320A7
:10033800DA6E010EDF6EEA51030D6F00CCFF0EF08E
:100348006F00D0FF0FF0E951300DD00E106EFF0E88
:10035800116EA00E126E060E136E1050122611505A
:100368001322F3501226F45013220E501224D96E81
:100378000F501320DA6E190EDF6EEA51030D6F006D
:10038800CCFF0EF06F00D0FF0FF0E951300DD20E08
:10039800106EFF0E116EA00E126E060E136E105028
:1003A800122611501322F3501226F45013220E5025
:1003B8001224D96E0F501320DA6E010EDF6EEA5147
:1003C800030D6F00CCFF0EF06F00D0FF0FF0E95166
:1003D800300DA00E106E060E116E010E1026000EC6
:1003E8001122F3501026F45011220E501024D96E09
:1003F8000F501120DA6E010EDF6EEA51030D6F0007
:10040800CCFF0EF06F00D0FF0FF0E951300DA00EB9
:10041800106E060E116EF3501026F45011220E5075
:100428001024D96E0F501120DA6E190EDF6EEA51C2
:10043800030D6F00CCFF0EF06F00D0FF0FF0E951F5
:10044800300DA00E106E060E116E020E1026000E54
:100458001122F3501026F45011220E501024D96E98
:100468000F501120DA6E010EDF6EEA51030D6F0096
:10047800CCFF0EF06F00D0FF0FF0E951300DA00E49
:10048800106E060E116E310E1026000E1122F3505A
:100498001026F45011220E501024D96E0F5011203E
:1004A800DA6E010EDF6EEA51030D6F00CCFF0EF01D
:1004B8006F00D0FF0FF0E951300DA00E106E060E40
:1004C800116E300E1026000E1122F3501026F45033
:1004D80011220E501024D96E0F501120DA6E190E09
:1004E800DF6EEA51030D6F00CCFF0EF06F00D0FFF6
:1004F8000FF0E951300DA00E106E060E116E320E7F
:100508001026000E1122F3501026F45011220E501E
:100518001024D96E0F501120DA6E010EDF6EE851EB
:10052800030D6F00CCFF0EF06F00D0FF0FF0E75106
:10053800300DFE0E106EFF0E116EA00E126E060E1E
:10054800136E1050122611501322F3501226F45035
:1005580013220E501224D96E0F501320DA6E010E9A
:10056800DF6EE851030D6F00CCFF0EF06F00D0FF77
:100578000FF0E751300DFD0E106EFF0E116EA00E3C
:10058800126E060E136E1050122611501322F350DD
:100598001226F45013220E501224D96E0F50132035
:1005A800DA6E010EDF6EE851030D6F00CCFF0EF01E
:1005B8006F00D0FF0FF0E751300DFF0E106EFF0EE9
:1005C800116EA00E126E060E136E105012261150E8
:1005D8001322F3501226F45013220E501224D96E0F
:1005E8000F501320DA6E190EDF6EE851030D6F00FD
:1005F800CCFF0EF06F00D0FF0FF0E751300DA00ECA
:10060800106E060E116E010E1026000E1122F35008
:100618001026F45011220E501024D96E0F501120BC
:10062800DA6E010EDF6EE851030D6F00CCFF0EF09D
:100638006F00D0FF0FF0E751300DA00E106E060EC0
:10064800116EF3501026F45011220E501024D96E5A
:100658000F501120DA6E010EDF6EE851030D6F00A6
:10066800CCFF0EF06F00D0FF0FF0E751300DA00E59
:10067800106E060E116E020E1026000E1122F35097
:100688001026F45011220E501024D96E0F5011204C
:10069800DA6E190EDF6EE851030D6F00CCFF0EF015
:1006A8006F00D0FF0FF0E751300DA00E106E060E50
:1006B800116E040E1026000E1122F3501026F4506D
:1006C80011220E501024D96E0F501120DA6E010E2F
:1006D800DF6EE851030D6F00CCFF0EF06F00D0FF06
:1006E8000FF0E751300DA00E106E060E116E030EBE
:1006F8001026000E1122F3501026F45011220E502D
:100708001024D96E0F501120DA6E010EDF6EE851F9
:10071800030D6F00CCFF0EF06F00D0FF0FF0E75114
:10072800300DA00E106E060E116E050E1026000E6E
:100738001122F3501026F45011220E501024D96EB5
:100748000F501120DA6E190EDF6EE651030D6F009F
:10075800CCFF0EF06F00D0FF0FF0E551300DD10E39
:10076800106EFF0E116EA00E126E060E136E105054
:10077800122611501322F3501226F45013220E5051
:100788001224D96E0F501320DA6E190EDF6EE6515F
:10079800030D6F00CCFF0EF06F00D0FF0FF0E55196
:1007A800300DD00E106EFF0E116EA00E126E060EDA
:1007B800136E1050122611501322F3501226F450C3
:1007C80013220E501224D96E0F501320DA6E190E10
:1007D800DF6EE651030D6F00CCFF0EF06F00D0FF07
:1007E8000FF0E551300DD20E106EFF0E116EA00EF7
:1007F800126E060E136E1050122611501322F3506B
:100808001226F45013220E501224D96E0F501320C2
:10081800DA6E010EDF6EE651030D6F00CCFF0EF0AD
:100828006F00D0FF0FF0E551300DA00E106E060ED0
:10083800116E010E1026000E1122F3501026F450EE
:1008480011220E501024D96E0F501120DA6E190E95
:10085800DF6EE651030D6F00CCFF0EF06F00D0FF86
:100868000FF0E551300DA00E106E060E116EF3500C
:100878001026F45011220E501024D96E0F5011205A
:10088800DA6E190EDF6EE651030D6F00CCFF0EF025
:100898006F00D0FF0FF0E551300DA00E106E060E60
:1008A800116E020E1026000E1122F3501026F4507D
:1008B80011220E501024D96E0F501120DA6E010E3D
:1008C800DF6EE651030D6F00CCFF0EF06F00D0FF16
:1008D8000FF0E551300DA00E106E060E116E310EA0
:1008E8001026000E1122F3501026F45011220E503B
:1008F8001024D96E0F501120DA6E190EDF6EE651F2
:10090800030D6F00CCFF0EF06F00D0FF0FF0E55124
:10091800300DA00E106E060E116E300E1026000E51
:100928001122F3501026F45011220E501024D96EC3
:100938000F501120DA6E190EDF6EE651030D6F00AD
:10094800CCFF0EF06F00D0FF0FF0E551300DA00E78
:10095800106E060E116E320E1026000E1122F35084
:100968001026F45011220E501024D96E0F50112069
:10097800DA6E010EDF6E12000001E451030D6F0004
:10098800CCFFB6F06F00D0FFB7F0E351300DA00EEA
:10099800B86F060EB96F010EB827000EB923F350D1
:1009A800B827F450B923B651B825D96EB751B92133
:1009B800DA6E000EDF6EE451030D6F00CCFFB6F067
:1009C8006F00D0FFB7F0E351300DA00EB86F060EE0
:1009D800B96FF350B827F450B923B651B825D96E7A
:1009E800B751B921DA6E000EDF6EE451030D6F00C6
:1009F800CCFFB6F06F00D0FFB7F0E351300DA00E7A
:100A0800B86F060EB96F020EB827000EB923F3505F
:100A1800B827F450B923B651B825D96EB751B921C2
:100A2800DA6E020EDF6E710EA36FFE0EA46FE4C0C5
:100A3800A5F0A66BE3C0A7F0A86BF8C0A9F0AA6B55
:100A4800E451030D6F00CCFFB6F06F00D0FFB7F094
:100A5800E351300DA00EB86F060EB96F010EB8271E
:100A6800000EB923F350B827F450B923B651B8256E
:100A7800D96EB751B921DA6EDF50BA6FBA51AB6F80
:100A8800AC6BFFEC27F06A0EA36FFC0EA46FECC0F2
:100A9800A5F0A66BEBC0A7F0A86BEAC0A9F0AA6BFB
:100AA800E9C0ABF0AC6BE8C0ADF0AE6BE7C0AFF03F
:100AB800B06BE6C0B1F0B26BE5C0B3F0B46BFFEC5D
:100AC80027F0EBD2E305D8A4E6D2E451030D6F007A
:100AD800CCFFB6F06F00D0FFB7F0E351300DD10E68
:100AE800B86FFF0EB96FA00EBA6F060EBB6FB85184
:100AF800BA27B951BB23F350BA27F450BB23B651D8
:100B0800BA25D96EB751BB21DA6EDF50D8A403D00D
:100B1800E307010E1200040EF86FE451B66FB76BCD
:100B2800FF0EB86FFF0EB96FEC51BA6FBB6BB851BF
:100B3800BA27B951BB23B651BA1906E1B751BB1947
:100B4800D8A402D0050E3DD1E451B66FB76BEC5175
:100B5800B86FB96B010EB827000EB923B651B81992
:100B680006E1B751B919D8A4B8D2030E2AD1B5D223
:100B78000E0EE419D8B403D0E305D8A469D0E45123
:100B8800030D6F00CCFFB6F06F00D0FFB7F0E35154
:100B9800300DD40EB86FFF0EB96FA00EBA6F060EE7
:100BA800BB6FB851BA27B951BB23F350BA27F450D9
:100BB800BB23B651BA25D96EB751BB21DA6EDF50C7
:100BC800D8A408D0E42BE3070E0EE419D8B4A1D7B3
:100BD800020E12000E0EE419D8A41ED0060EF86FED
:100BE800E951E319D8A402D0070EEBD0E351B66F50
:100BF800B76BFE0EB86FFF0EB96FE951BA6FBB6BDA
:100C0800B851BA27B951BB23B651BA19B0E1B75197
:100C1800BB19D8B4AAD761D2040EF86FEC51E41905
:100C2800D8B4A3D7E451B66FB76BFE0EB86FFF0EFA
:100C3800B96FEC51BA6FBB6BB851BA27B951BB2326
:100C4800B651BA1994E1B751BB19D8B47BD745D27C
:100C5800E42B21D20E0EE419D8A449D0E451030D97
:100C68006F00CCFFB6F06F00D0FFB7F0E351300D46
:100C7800A00EB86F060EB96F040EB827000EB92380
:100C8800F350B827F450B923B651B825D96EB751E7
:100C9800B921DA6EDF50D8A402D0E42B99D7060E1A
:100CA800F86FE351B66FB76BFF0EB86FFF0EB96FF1
:100CB800E951BA6FBB6BB851BA27B951BB23B651CA
:100CC800BA1904E1B751BB19D8B48ED7E351B66F3E
:100CD800B76BE951B86FB96B010EB827000EB9238D
:100CE800B651B81903E1B751B919AFD7F6D1E42B0A
:100CF800F4D10E0EE419D8B404D00E0EE319D8A41A
:100D080062D0E451030D6F00CCFFB6F06F00D0FF46
:100D1800B7F0E351300DA00EB86F060EB96F340E60
:100D2800B827000EB923F350B827F450B923B651A9
:100D3800B825D96EB751B921DA6EDF50D8A407D0DB
:100D4800E42BE32B0E0EE419D8B442D7E2D60E0EEC
:100D5800E419D8A41AD0060EF86FE351B66FB76B32
:100D6800FE0EB86FFF0EB96FE951BA6FBB6BB85181
:100D7800BA27B951BB23B651BA1904E1B751BB1907
:100D8800D8B432D7E951E31960D7000EF86FE451AF
:100D9800B66FB76BFE0EB86FFF0EB96FE851BA6F3A
:100DA800BB6BB851BA27B951BB23B651BA1904E184
:100DB800B751BB19D8B418D7E851E419D8A48DD1C4
:100DC800010EF86F8AD1E42BB3D00E0EE319D8A424
:100DD800AFD0E451030D6F00CCFFB6F06F00D0FF29
:100DE800B7F0E351300DA00EB86F060EB96F310E93
:100DF800B827000EB923F350B827F450B923B651D9
:100E0800B825D96EB751B921DA6EDF50D8A402D00F
:100E1800E32B7FD6000EF86FE451B66FB76BFF0E69
:100E2800B86FFF0EB96FE851BA6FBB6BB851BA27EC
:100E3800B951BB23B651BA1904E1B751BB19D8B49B
:100E4800D3D6E451B66FB76BE851B86FB96B010EE2
:100E5800B827000EB923B651B81904E1B751B9192A
:100E6800D8B4AED73AD1E405D8B404D00E0EE319FD
:100E7800D8A45DD0E451030D6F00CCFFB6F06F002D
:100E8800D0FFB7F0E351300DA00EB86F060EB96F62
:100E98002E0EB827000EB923F350B827F450B92303
:100EA800B651B825D96EB751B921DA6EDF50D8A43A
:100EB80009D0E407E32BE405D8A402D0040E1200FD
:100EC800030E1200E405D8A41AD0020EF86FE351FD
:100ED800B66FB76BFE0EB86FFF0EB96FE551BA6FFC
:100EE800BB6BB851BA27B951BB23B651BA1904E143
:100EF800B751BB19D8B464D7E551E3198AD6000EA7
:100F0800F86FE451B66FB76BE851B86FB96B020E62
:100F1800B827000EB923B651B81904E1B751B91969
:100F2800D8B44ED7E851E419D8B45ED6D6D0E40781
:100F3800E32BD3D0E405D8A44DD0E451030D6F00C2
:100F4800CCFFB6F06F00D0FFB7F0E351300DFE0EC6
:100F5800B86FFF0EB96FA00EBA6F060EBB6FB8510F
:100F6800BA27B951BB23F350BA27F450BB23B65163
:100F7800BA25D96EB751BB21DA6EDF50D8A402D09A
:100F8800E4079CD7020EF86FE351B66FB76BFF0EFC
:100F9800B86FFF0EB96FE551BA6FBB6BB851BA277E
:100FA800B951BB23B651BA1904E1B751BB19D8B42A
:100FB80007D7E351B66FB76BE551B86FB96B010E40
:100FC800B827000EB923B651B81903E1B751B919BA
:100FD80020D683D0E40781D0E405D8B403D0E30554
:100FE800D8A458D0E451030D6F00CCFFB6F06F00C1
:100FF800D0FFB7F0E351300DCE0EB86FFF0EB96FCA
:10100800A00EBA6F060EBB6FB851BA27B951BB23F1
:10101800F350BA27F450BB23B651BA25D96EB7514D
:10102800BB21DA6EDF50D8A406D0E407E307E40555
:10103800D8B444D76ED5E405D8A416D0020EF86FFC
:10104800E351B66FB76BE551B86FB96B020EB827AD
:10105800000EB923B651B81904E1B751B919D8B47B
:1010680084D5E551E319FCD6040EF86FE451B66F48
:10107800B76BEC51B86FB96B020EB827000EB923E5
:10108800B651B81904E1B751B919D8B46ED5EC51B5
:10109800E419DBD5E407E30720D0F851B66FB76B46
:1010A800B751000AD8A419D0B651000AD8B40AD545
:1010B800010AD8B45DD5030AD8B4CCD5010AD8B48E
:1010C80018D6070AD8B481D6010AD8B4CCD6030AF0
:1010D800D8B430D7010AD8B47FD7250EA36FFE0E37
:1010E800A46FE4C0A5F0A66BE3C0A7F0A86BF8C096
:1010F800A9F0AA6BE451030D6F00CCFFB6F06F00A6
:10110800D0FFB7F0E351300DA00EB86F060EB96FDF
:10111800010EB827000EB923F350B827F450B923AD
:10112800B651B825D96EB751B921DA6EDF50BA6F0A
:10113800BA51AB6FAC6BFFEC27F0000E1200000E3B
:101148001F6E000E206E000E216E2150030D6F00E1
:10115800CCFF14F06F00D0FF15F02050300DA00E1A
:10116800166E060E176E010E1626000E1722F35085
:101178001626F450172214501624D96E155017202D
:10118800DA6EDE501F5CD8B01ED02150030D6F0000
:10119800CCFF14F06F00D0FF15F02050300DA00EDA
:1011A800166E060E176E010E1626000E1722F35045
:1011B8001626F450172214501624D96E15501720ED
:1011C800DA6EDF501F6E2150030D6F00CCFF14F054
:1011D8006F00D0FF15F02050300DA00E166E060ED1
:1011E800176EF3501626F450172214501624D96E91
:1011F80015501720DA6EDE501F5CD8B01AD0215077
:10120800030D6F00CCFF14F06F00D0FF15F02050D5
:10121800300DA00E166E060E176EF3501626F450FB
:10122800172214501624D96E15501720DA6EDF5085
:101238001F6E2150030D6F00CCFF14F06F00D0FF1C
:1012480015F02050300DA00E166E060E176E020E09
:101258001626000E1722F3501626F45017221450A3
:101268001624D96E15501720DA6EDE501F5CD8B0E0
:101278001ED02150030D6F00CCFF14F06F00D0FF7B
:1012880015F02050300DA00E166E060E176E020EC9
:101298001626000E1722F3501626F4501722145063
:1012A8001624D96E15501720DA6EDF501F6E2150A4
:1012B800030D6F00CCFF14F06F00D0FF15F0205025
:1012C800300DA00E166E030E176E010E1626000EB8
:1012D8001722F3501626F450172214501624D96EEC
:1012E80015501720DA6E000EDF6E2150030D6F00C7
:1012F800CCFF14F06F00D0FF15F02050300DA00E79
:10130800166E030E176EF3501626F450172214505B
:101318001624D96E15501720DA6E000EDF6E215094
:10132800030D6F00CCFF14F06F00D0FF15F02050B4
:10133800300DA00E166E030E176E020E1626000E46
:101348001722F3501626F450172214501624D96E7B
:1013580015501720DA6E000EDF6E212A0F0E216459
:10136800F4D6202A0F0E2064EED6010E0F6EF40E6E
:101378000E6E6BEC27F0000E1E6E28D2000E206E4B
:1013880020A014D1000E216E2150030D6F00CCFF58
:1013980014F06F00D0FF15F02050300DA00E166E1F
:1013A800060E176E010E1626000E1722F35016268B
:1013B800F450172214501624D96E15501720DA6EDF
:1013C80021C00EF00F6AFF0E116EFD0E106E81EC3B
:1013D80027F02050300DA00E196E030E1A6E2E0E37
:1013E8001926000E1A22F3501926F4501A220E500C
:1013F8001924E16E0F501A20E26EDE50E65CD8B078
:101408001ED021C00EF00F6AFF0E116EFD0E106E79
:1014180081EC27F02050300DA00E146E030E156ECF
:101428002E0E1426000E1522F3501426F450152201
:101438000E501424D96E0F501520DA6EDF2A215071
:10144800030D6F00CCFF14F06F00D0FF15F0205093
:10145800300DA00E166E060E176EF3501626F450B9
:10146800172214501624D96E15501720DA6E21C091
:101478000EF00F6AFF0E116EFD0E106E81EC27F054
:101488002050300DA00E196E030E1A6E2D0E19265F
:10149800000E1A22F3501926F4501A220E5019245D
:1014A800E16E0F501A20E26EDE50E65CD8B01ED016
:1014B80021C00EF00F6AFF0E116EFD0E106E81EC4A
:1014C80027F02050300DA00E146E030E156E2D0E51
:1014D8001426000E1522F3501426F45015220E502F
:1014E8001424D96E0F501520DA6EDF2A2150030D0F
:1014F8006F00CCFF14F06F00D0FF15F02050300DB6
:10150800A00E166E060E176E020E1626000E172275
:10151800F3501626F450172214501624D96E15507D
:101528001720DA6E21C00EF00F6AFF0E116EFD0E45
:10153800106E81EC27F02050300DA00E196E030EAE
:101548001A6E2F0E1926000E1A22F3501926F4507F
:101558001A220E501924E16E0F501A20E26EDE5046
:10156800E65CD8B01ED021C00EF00F6AFF0E116ED7
:10157800FD0E106E81EC27F02050300DA00E146E79
:10158800030E156E2F0E1426000E1522F350142686
:10159800F45015220E501424D96E0F501520DA6E0F
:1015A800DF2A212A0F0E2164EFD605D1000E216E05
:1015B8002150030D6F00CCFF14F06F00D0FF15F021
:1015C8002050300DA00E166E060E176E010E162650
:1015D800000E1722F3501626F45017221450162422
:1015E800D96E15501720DA6E2150030D6F00CCFF0D
:1015F80019F06F00D0FF1AF02050300DA00E1B6EAE
:10160800030E1C6E010E1B26000E1C22F3501B2617
:10161800F4501C2219501B24E16E1A501C20E26E53
:10162800DE50E65CD8B01DD02150030D6F00CCFF12
:1016380014F06F00D0FF15F02050300DA00E166E7C
:10164800030E176E010E1626000E1722F3501626EB
:10165800F450172214501624D96E15501720DA6E3C
:10166800DF2A2150030D6F00CCFF14F06F00D0FF6C
:1016780015F02050300DA00E166E060E176EF350A2
:101688001626F450172214501624D96E1550172018
:10169800DA6E2150030D6F00CCFF19F06F00D0FFF8
:1016A8001AF02050300DA00E1B6E030E1C6EF35066
:1016B8001B26F4501C2219501B24E16E1A501C20C2
:1016C800E26EDE50E65CD8B019D02150030D6F00F1
:1016D800CCFF14F06F00D0FF15F02050300DA00E95
:1016E800166E030E176EF3501626F4501722145078
:1016F8001624D96E15501720DA6EDF2A2150030DF3
:101708006F00CCFF14F06F00D0FF15F02050300DA3
:10171800A00E166E060E176E020E1626000E172263
:10172800F3501626F450172214501624D96E15506B
:101738001720DA6E2150030D6F00CCFF19F06F00EF
:10174800D0FF1AF02050300DA00E1B6E030E1C6E39
:10175800020E1B26000E1C22F3501B26F4501C22DE
:1017680019501B24E16E1A501C20E26EDE50E65C14
:10177800D8B01DD02150030D6F00CCFF14F06F00BE
:10178800D0FF15F02050300DA00E166E030E176E08
:10179800020E1626000E1722F3501626F4501722B2
:1017A80014501624D96E15501720DA6EDF2A212A14
:1017B8000F0E2164FDD6202A0F0E2064E1D5000EFD
:1017C8000F6E640E0E6E6BEC27F01E2A1F501E5C07
:1017D800D8B01200D3D57651D96EDA6A6F007BFF84
:1017E800F6FF6F0077FFF7FFF86A0800F550250A43
:1017F800D8A4EDD27651D96EDA6ADE2A000EDD223F
:10180800000E436E000E426E42C046F043C047F0E1
:1018180044684568000E886F000E13D046807651E4
:10182800D96EDA6ADE2A000EDD2230D04682F7D77A
:101838004684F5D74686F3D74688F1D7000E886FD9
:10184800010E876F23D07651D96EDA6A6F007BFF5D
:10185800F6FF6F0077FFF7FFF86A0800F550786F1A
:10186800796B7951000AD8A4E9D77851200AD8B4FD
:10187800E1D7030AD8B4E0D7080AD8B4D9D7060AFA
:10188800D8B4CCD71D0AD8B4D1D7D8D787518811A6
:10189800D8B4D9D746B046927651D96EDA6A6F0075
:1018A8007BFFF6FF6F0077FFF7FFF86A0800F55037
:1018B8002A0AD8A41CD07651D96EDA6ADE2A000E1C
:1018C800DD227751D96EDA6A020EDF26DF5CD96E27
:1018D800DA6A6F0078FF42F06F0078FF43F043AE9A
:1018E80042D04680426C431ED8B0432A3CD0765141
:1018F800D96EDA6A6F0078FF15F06F0074FF16F082
:101908006BEC1AF015C042F016C043F006D07651C1
:10191800D96EDA6ADE2A000EDD22D00E0001786F59
:10192800FF0E796F7651D96EDA6A6F007BFFF6FF8A
:101938006F0077FFF7FFF86A0800F5507A6F7B6B46
:1019480078517A2779517B237B5106E10A0E7A5D1B
:10195800D8B002D0010E01D0000E896F8A6B895170
:101968008A11D8A4D4D77651D96EDA6A6F007BFF72
:10197800F6FF6F0077FFF7FFF86A0800F550640A72
:10198800D8B40FD07651D96EDA6A6F007BFFF6FFB4
:101998006F0077FFF7FFF86A0800F550690AD8A4C6
:1019A80038D07651D96EDA6ADE2A000EDD227751F8
:1019B800D96EDA6ADF50DF2ADF2AD96EDA6A6F0059
:1019C80078FF8BF06F0074FF8CF0000E8CBFFF0E59
:1019D8008D6F8E6F8F6F906F916F926F74C02BF0B9
:1019E80075C02CF08BC02DF08CC02EF08DC02FF060
:1019F8008EC030F08FC031F090C032F091C033F01B
:101A080092C034F0C4EC14F02BC074F02CC075F004
:101A180012007651D96EDA6A6F0078FF0EF06F0007
:101A280074FF0FF0F50E106EFF0E116E000E136EA0
:101A3800020E126EA2EC1FF00E500F10D8B417D081
:101A48007651D96EDA6A6F0078FF0EF06F0074FF76
:101A58000FF0F80E106EFF0E116E000E136E020ED0
:101A6800126EA2EC1FF00E500F10D8A45AD0765167
:101A7800D96EDA6A020EDE26000EDD227751D96EA3
:101A8800DA6A6F007CFF78F0040EDF267851D96E91
:101A9800DA6A6F0078FF79F06F0078FF7AF06F00EC
:101AA80078FF7BF06F0078FF7CF079C07DF07AC01A
:101AB8007EF07BC07FF07CC080F0816B80BF816945
:101AC80081C082F081C083F081C084F07DC08BF03A
:101AD8007EC08CF07FC08DF080C08EF081C08FF00A
:101AE80082C090F083C091F084C092F074C02BF053
:101AF80075C02CF08BC02DF08CC02EF08DC02FF04F
:101B08008EC030F08FC031F090C032F091C033F009
:101B180092C034F0C4EC14F02BC074F02CC075F0F3
:101B280012007651D96EDA6A6F007BFFF6FF6F00FC
:101B380077FFF7FFF86A0800F550730AD8A423D096
:101B48007651D96EDA6ADE2A000EDD227751D96E17
:101B5800DA6A020EDF26DF5CD96EDA6A6F0078FF78
:101B680085F06F0078FF86F074C019F075C01AF020
:101B780085C01BF086C01CF05AEC1CF019C074F02C
:101B88001AC075F012007651D96EDA6A6F007BFFC1
:101B9800F6FF6F0077FFF7FFF86A0800F550780A3C
:101BA800D8B40FD07651D96EDA6A6F007BFFF6FF92
:101BB8006F0077FFF7FFF86A0800F550580AD8A4B5
:101BC80049D07651D96EDA6A6F007BFFF6FF6F0055
:101BD80077FFF7FFF86A08006F00D4FF9BF0765193
:101BE800D96EDA6ADE2A000EDD227751D96EDA6AFA
:101BF800DF50DF2ADF2AD96EDA6A6F0078FF78F0C3
:101C08006F0074FF79F078C093F079C094F0956B09
:101C1800966B976B986B996B9A6B74C02BF075C029
:101C28002CF093C02DF094C02EF095C02FF096C0E4
:101C380030F097C031F098C032F099C033F09AC0B4
:101C480034F09BC035F0E7EC15F02BC074F02CC0D5
:101C580075F012007651D96EDA6A6F0078FF0EF0CF
:101C68006F0074FF0FF0FB0E106EFF0E116E000E6A
:101C7800136E020E126EA2EC1FF00E500F10D8B4A5
:101C880017D07651D96EDA6A6F0078FF0EF06F00C0
:101C980074FF0FF0F20E106EFF0E116E000E136E31
:101CA800020E126EA2EC1FF00E500F10D8A45FD0D7
:101CB8007651D96EDA6A6F0078FF78F06F0074FF9A
:101CC80079F0010E7827000E79236000E3F1F6FF22
:101CD8006000E7F1F7FFF86A08006F00D4FF9BF097
:101CE8007651D96EDA6A020EDE26000EDD227751B1
:101CF800D96EDA6A6F007CFF78F0040EDF2678511F
:101D0800D96EDA6A6F0078FF79F06F0078FF7AF0A1
:101D18006F0078FF7BF06F0078FF7CF07951936F4C
:101D28007A51946F7B51956F7C51966F976B986B36
:101D3800996B9A6B74C02BF075C02CF093C02DF082
:101D480094C02EF095C02FF096C030F097C031F0B7
:101D580098C032F099C033F09AC034F09BC035F087
:101D6800E7EC15F02BC074F02CC075F0120076511A
:101D7800D96EDA6A6F007BFFF6FF6F0077FFF7FF17
:101D8800F86A0800F550250AD8A416D07651D96EFD
:101D9800DA6ADE2A000EDD22000E116E250E106EA4
:101DA80074C012F075C013F007EC24F0000E0001A7
:101DB800756F010E746F12007651D96EDA6ADE2AD9
:101DC800000EDD22000E756F000E746F1200765142
:101DD800D96EDA6A6F007BFFF6FF6F0077FFF7FFB7
:101DE800F86A0800F550106E116A74C012F075C0D8
:101DF80013F007EC24F000017651D96EDA6ADE2A76
:101E0800000EDD22D3D7000E196E000E1B6E000ED9
:101E18001A6E1A50030D6F00CCFF13F06F00D0FF3D
:101E280014F01B50300DA00E156E030E166E010E29
:101E38001526000E1622F3501526F45016221350BC
:101E48001524D96E14501620DA6EDE50195CD8B0FD
:101E58001ED01A50030D6F00CCFF13F06F00D0FF97
:101E680014F01B50300DA00E156E030E166E010EE9
:101E78001526000E1622F3501526F450162213507C
:101E88001524D96E14501620DA6EDF50196E1A50C8
:101E9800030D6F00CCFF13F06F00D0FF14F01B5040
:101EA800300DA00E156E030E166EF3501526F45065
:101EB800162213501524D96E14501620DA6EDE50EF
:101EC800195CD8B01AD01A50030D6F00CCFF13F06C
:101ED8006F00D0FF14F01B50300DA00E156E030ECE
:101EE800166EF3501526F450162213501524D96E89
:101EF80014501620DA6EDF50196E1A50030D6F0059
:101F0800CCFF13F06F00D0FF14F01B50300DA00E63
:101F1800156E030E166E020E1526000E1622F350CD
:101F28001526F450162213501524D96E1450162075
:101F3800DA6EDE50195CD8B01ED01A50030D6F004F
:101F4800CCFF13F06F00D0FF14F01B50300DA00E23
:101F5800156E030E166E020E1526000E1622F3508D
:101F68001526F450162213501524D96E1450162035
:101F7800DA6EDF50196E1A2A0F0E1A644AD71B2A16
:101F88000F0E1B6444D7000E186EBFD0000E1B6ED8
:101F9800000E1A6E1A50030D6F00CCFF13F06F007D
:101FA800D0FF14F01B50300DA00E156E030E166EE8
:101FB800010E1526000E1622F3501526F45016228F
:101FC80013501524D96E14501620DA6EDF50D8B489
:101FD8001DD01A50030D6F00CCFF13F06F00D0FF17
:101FE80014F01B50300DA00E156E030E166E010E68
:101FF8001526000E1622F3501526F45016221350FB
:102008001524D96E14501620DA6EDF061A50030D07
:102018006F00CCFF13F06F00D0FF14F01B50300D91
:10202800A00E156E030E166EF3501526F4501622E8
:1020380013501524D96E14501620DA6EDF50D8B418
:1020480019D01A50030D6F00CCFF13F06F00D0FFAA
:1020580014F01B50300DA00E156E030E166EF350C3
:102068001526F450162213501524D96E1450162034
:10207800DA6EDF061A50030D6F00CCFF13F06F0005
:10208800D0FF14F01B50300DA00E156E030E166E07
:10209800020E1526000E1622F3501526F4501622AD
:1020A80013501524D96E14501620DA6EDF50D8B4A8
:1020B8001DD01A50030D6F00CCFF13F06F00D0FF36
:1020C80014F01B50300DA00E156E030E166E020E86
:1020D8001526000E1622F3501526F450162213501A
:1020E8001524D96E14501620DA6EDF061A2A0F0E40
:1020F8001A6450D71B2A0F0E1B644AD7000E0F6EA6
:10210800320E0E6E6BEC27F0182A1950185CD8B0F6
:1021180012003CD7000E1F6E000E206E000E216EBE
:10212800000E226E000E1E6E3701E0B77CD020EE46
:1021380001F01C50D9261D50DA226F0078FF0EF0EE
:102148006F0078FF0FF06F0078FF10F06F0078FFD6
:1021580011F0600073F0D9FF600077F0DAFFDF500C
:10216800126E1F0E136E200E146E210E156E220EA7
:10217800166EACEC1EF060007FF0E3F7600083F0B1
:10218800E4F7600087F0E1F760008BF0E2F720EEFB
:1021980005F01C50D9261D50DA22DF50E56F20EEDD
:1021A80006F01C50D9261D50DA22DF50E66F20EECB
:1021B80007F01C50D9261D50DA22DF50E76F20EEB9
:1021C80008F01C50D9261D50DA22DF50E86F20EEA7
:1021D80009F01C50D9261D50DA22DF50E96F20EE95
:1021E8000AF01C50D9261D50DA22DF50EA6F20EE83
:1021F8000BF01C50D9261D50DA22DF50EB6F20EE71
:102208000CF01C50D9261D50DA22DF50EC6F20EE5E
:102218000DF01C50D9261D50DA22DF50ED6FE087F3
:10222800010E1E6EF8D0D0B77AD020EE01F01C5007
:10223800D9261D50DA226F0078FF0EF06F0078FF64
:102248000FF06F0078FF10F06F0078FF11F060005A
:1022580073F0D9FF600077F0DAFFDF50126E1F0EBF
:10226800136E200E146E210E156E220E166EACEC37
:102278001EF060007FF0D3F7600083F0D4F76000B1
:1022880087F0D1F760008BF0D2F720EE05F01C50F4
:10229800D9261D50DA22DF50D56F20EE06F01C50EB
:1022A800D9261D50DA22DF50D66F20EE07F01C50D9
:1022B800D9261D50DA22DF50D76F20EE08F01C50C7
:1022C800D9261D50DA22DF50D86F20EE09F01C50B5
:1022D800D9261D50DA22DF50D96F20EE0AF01C50A3
:1022E800D9261D50DA22DF50DA6F20EE0BF01C5091
:1022F800D9261D50DA22DF50DB6F20EE0CF01C507F
:10230800D9261D50DA22DF50DC6F20EE0DF01C506C
:10231800D9261D50DA22DF50DD6FD08781D7C0B7AC
:102328007AD020EE01F01C50D9261D50DA226F0019
:1023380078FF0EF06F0078FF0FF06F0078FF10F055
:102348006F0078FF11F0600073F0D9FF600077F03C
:10235800DAFFDF50126E1F0E136E200E146E210E60
:10236800156E220E166EACEC1EF060007FF0C3F7FF
:10237800600083F0C4F7600087F0C1F760008BF05D
:10238800C2F720EE05F01C50D9261D50DA22DF5086
:10239800C56F20EE06F01C50D9261D50DA22DF50FA
:1023A800C66F20EE07F01C50D9261D50DA22DF50E8
:1023B800C76F20EE08F01C50D9261D50DA22DF50D6
:1023C800C86F20EE09F01C50D9261D50DA22DF50C4
:1023D800C96F20EE0AF01C50D9261D50DA22DF50B2
:1023E800CA6F20EE0BF01C50D9261D50DA22DF50A0
:1023F800CB6F20EE0CF01C50D9261D50DA22DF508E
:10240800CC6F20EE0DF01C50D9261D50DA22DF507B
:10241800CD6FC08705D71E501200000E1E6E1EA07D
:10242800B7D0000E1C6E1CC00EF00F6AFF0E116EA6
:10243800FD0E106E81EC27F01E50300DA00E146EAC
:10244800060E156E2E0E1426000E1522F3501426B5
:10245800F45015220E501424D96E0F501520DA6E40
:102468001C50030D6F00CCFF16F06F00D0FF17F063
:102478001E50300DA00E186E030E196E010E182690
:10248800000E1922F3501826F45019221650182459
:10249800E16E17501920E26E6F007FFFE7FF1CC046
:1024A8000EF00F6AFF0E116EFD0E106E81EC27F014
:1024B8001E50300DA00E146E060E156E2D0E14262D
:1024C800000E1522F3501426F45015220E50142431
:1024D800D96E0F501520DA6E1C50030D6F00CCFF1B
:1024E80016F06F00D0FF17F01E50300DA00E186EBA
:1024F800030E196EF3501826F4501922165018249A
:10250800E16E17501920E26E6F007FFFE7FF1CC0D5
:102518000EF00F6AFF0E116EFD0E106E81EC27F0A3
:102528001E50300DA00E146E060E156E2F0E1426BA
:10253800000E1522F3501426F45015220E501424C0
:10254800D96E0F501520DA6E1C50030D6F00CCFFAA
:1025580016F06F00D0FF17F01E50300DA00E186E49
:10256800030E196E020E1826000E1922F3501826B3
:10257800F450192216501824E16E17501920E26EF3
:102588006F007FFFE7FF1C2A0F0E1C644CD7AFD0EB
:10259800000E1D6E1D50030D6F00CCFF14F06F0070
:1025A800D0FF15F01E50300DA00E166E060E176ED9
:1025B800010E1626000E1722F3501626F450172285
:1025C80014501624D96E15501720DA6E1D50030DBD
:1025D8006F00CCFF18F06F00D0FF19F01E50300DBF
:1025E800A00E1A6E030E1B6E010E1A26000E1B2279
:1025F800F3501A26F4501B2218501A24E16E195071
:102608001B20E26E6F007FFFE7FF1D50030D6F0078
:10261800CCFF14F06F00D0FF15F01E50300DA00E47
:10262800166E060E176EF3501626F4501722145025
:102638001624D96E15501720DA6E1D50030D6F0041
:10264800CCFF18F06F00D0FF19F01E50300DA00E0F
:102658001A6E030E1B6EF3501A26F4501B221850E4
:102668001A24E16E19501B20E26E6F007FFFE7FF0E
:102678001D50030D6F00CCFF14F06F00D0FF15F054
:102688001E50300DA00E166E060E176E020E162680
:10269800000E1722F3501626F45017221450162451
:1026A800D96E15501720DA6E1D50030D6F00CCFF40
:1026B80018F06F00D0FF19F01E50300DA00E1A6EE2
:1026C800030E1B6E020E1A26000E1B22F3501A264A
:1026D800F4501B2218501A24E16E19501B20E26E88
:1026E8006F007FFFE7FF1D2A0F0E1D6453D71E2AB8
:1026F8000F0E1E6494D61200000E236E80AE9ED07C
:1027080082A627D0600087F0D9FF60008BF0DAFF3F
:10271800020EDF6E6F0010FE0EF06F0004FE0FF069
:102728006F0008FE10F08350BEEC1BF020EE01F0A5
:102738002150D9262250DA2260003BF0DEFF6000EB
:102748003FF0DEFF600043F0DEFF600047F0DEFF91
:1027580020D0600087F0D9FF60008BF0DAFF010E0F
:10276800DF6E6F0008FE0EF08150CCEC23F020EEF7
:1027780001F02150D9262250DA2260003BF0DEFF1A
:1027880060003FF0DEFF600043F0DEFF600047F0CE
:10279800DEFF20EE05F02150D9262250DA226F0004
:1027A80017FEDFFF20EE06F02150D9262250DA224C
:1027B8006F001BFEDFFF20EE07F02150D9262250C4
:1027C800DA226F001FFEDFFF20EE08F02150D92625
:1027D8002250DA226F0023FEDFFF20EE09F021509D
:1027E800D9262250DA226F0027FEDFFF20EE0AF0FA
:1027F8002150D9262250DA226F002BFEDFFF20EE6F
:102808000BF02150D9262250DA226F002FFEDFFF6D
:1028180020EE0CF02150D9262250DA226F0033FE28
:10282800DFFF20EE0DF02150D9262250DA226F006A
:1028380037FEDFFF809E010E236EA0D03701F0AF78
:102848009DD0F2A727D0600087F0D9FF60008BF0F9
:10285800DAFF020EDF6E6D00D0FF0EF06D00C4FFD0
:102868000FF06D00C8FF10F0F351BEEC1BF020EE26
:1028780001F02150D9262250DA2260003BF0DEFF19
:1028880060003FF0DEFF600043F0DEFF600047F0CD
:10289800DEFF20D0600087F0D9FF60008BF0DAFF00
:1028A800010EDF6E6D00C8FF0EF0F151CCEC23F085
:1028B80020EE01F02150D9262250DA2260003BF0A8
:1028C800DEFF60003FF0DEFF600043F0DEFF6000E7
:1028D80047F0DEFF20EE05F02150D9262250DA22FB
:1028E8006D00D7FFDFFF20EE06F02150D9262250D9
:1028F800DA226D00DBFFDFFF20EE07F02150D9263A
:102908002250DA226D00DFFFDFFF20EE08F02150B1
:10291800D9262250DA226D00E3FFDFFF20EE09F00E
:102928002150D9262250DA226D00E7FFDFFF20EE82
:102938000AF02150D9262250DA226D00EBFFDFFF82
:1029480020EE0BF02150D9262250DA226D00EFFF3D
:10295800DFFF20EE0CF02150D9262250DA226D003C
:10296800F3FFDFFF20EE0DF02150D9262250DA22A6
:102978006D00F7FFDFFF3701F09F5DD7235012008E
:102988002DC068F02EC069F02FC06AF030C06BF01F
:1029980031C06CF032C06DF033C06EF034C06FF0EF
:1029A8006FAF02D0010E01D0000E666F676B6651E3
:1029B8006711D8B410D06F1F6E1F6D1F6C1F6B1F6F
:1029C8006A1F691F686D000E69236A236B236C23D5
:1029D8006D236E236F2345AE469245BE05D0455004
:1029E80008E14404D8B005D0000E636F010E626F91
:1029F80004D044C062F045C063F042C064F043C0F4
:102A080065F066516711D8A402D046A403D06407C4
:102A1800D8A06507000E716F1F0E706F000E0101C0
:102A2800876F7CD07007D8A07107680E7025D96EA3
:102A3800010E7121DA6E68C00EF069C00FF06AC02D
:102A480010F06BC011F06CC012F06DC013F06EC0C6
:102A580014F06FC015F00A0E166E000E176E000EF9
:102A6800186E000E196E000E1A6E000E1B6E000E08
:102A78001C6E000E1D6E1AEC1EF00EC035F00FC055
:102A880036F010C037F011C038F012C039F013C05A
:102A98003AF014C03BF015C03CF035C020F037C008
:102AA80021F093EC26F02050300FDF6E6207D8A09B
:102AB80063076407D8A0650768C00EF069C00FF007
:102AC8006AC010F06BC011F06CC012F06DC013F04A
:102AD8006EC014F06FC015F00A0E166E000E176E59
:102AE800000E186E000E196E000E1A6E000E1B6E88
:102AF800000E1C6E000E1D6E1AEC1BF00EC068F066
:102B08000FC069F010C06AF011C06BF012C06CF011
:102B180013C06DF014C06EF015C06FF0000171BFE6
:102B28001FD0715103E17005D8A01AD068516911FE
:102B38006A116B116C116D116E116F11D8A472D7D7
:102B480063BF05D0635102E16205D8B06BD765BF9A
:102B580007D0655103E16405D8A002D046B262D718
:102B680066516711D8A402D046A418D07007D8A01F
:102B7800710766516711D8A404D0000E616F2B0E3F
:102B880003D0000E616F2D0E606F680E7025D96E30
:102B9800010E7121DA6E600083F1DFFF2BC020F097
:102BA8002CC021F0680E7025226E010E7121236E53
:102BB80064C024F065C025F075EC22F020C02BF02D
:102BC80021C02CF0120045AE469245BE05D04550B6
:102BD80008E14404D8B005D0000E656F010E646F9B
:102BE80004D044C064F045C065F042C066F043C0FC
:102BF80067F046A804D0FE0E6627FF0E67232DC097
:102C080068F02EC069F02FC06AF030C06BF031C098
:102C18006CF032C06DF033C06EF034C06FF0000E4F
:102C2800716F1F0E706F000E0101876F94D07007CF
:102C3800D8A071070F0E6815726F736B73BF08D039
:102C4800735104E10A0E725DD8A002D0570E01D06C
:102C5800300E7225726F000E7321736FBF0E366EC1
:102C6800FF0E376E3550386E396A36503826375071
:102C78003922395006E11A0E385CD8B002D0010E5C
:102C880001D0000E606F616B60516111D8B427D01C
:102C98009F0E366EFF0E376E200E7211386E000EC4
:102CA8007311396E3650382637503922395006E1BB
:102CB8001A0E385CD8B002D0010E01D0000E626F37
:102CC800636B62516311D8B40AD072C014F073C038
:102CD80015F0C6EC24F014C072F015C073F0680E3D
:102CE8007025D96E010E7121DA6E6000CBF1DFFF1D
:102CF8006407D8A065076607D8A0670768C036F0DC
:102D080069C037F06AC038F06BC039F06CC03AF06F
:102D18006DC03BF06EC03CF06FC03DF0050E09D0B1
:102D2800D8903D323C323B323A323932383237323F
:102D38003632E82EF5D736C068F037C069F038C0AB
:102D48006AF039C06BF03AC06CF03BC06DF03CC023
:102D58006EF03DC06FF0000171BF20D0715104E1E9
:102D6800020E705DD8A01AD0685169116A116B11F2
:102D78006C116D116E116F11D8A459D765BF05D0AC
:102D8800655102E16405D8B052D767BF07D06751D3
:102D980003E16605D8A002D046B249D746A817D0A5
:102DA8007007D8A07107680E7025D96E010E7121C1
:102DB800DA6E6000D7F0DFFF7007D8A07107680EE1
:102DC8007025D96E010E7121DA6E300EDF6E2BC0C0
:102DD80020F02CC021F0680E7025226E010E7121A2
:102DE800236E66C024F067C025F075EC22F020C081
:102DF8002BF021C02CF01200640E0001F26F4A0E75
:102E0800F36F39EC28F0000E0001CD6F640EA36F4C
:102E1800FF0EA46FFFEC27F0CABE05D0BCEC19F07A
:102E2800E806D8A4F9D7CAAE04D00BEC26F0CABE7F
:102E3800FED73EC0C4F03FC0C5F040C0C6F041C098
:102E4800C7F0C4C0C8F0C5C0C9F0C6C0CAF0C7C082
:102E5800CBF0870E0001A36FFF0EA46FFFEC27F0E5
:102E6800C2D0C8513E5CC06FC9513F58C16FCA51EA
:102E78004058C26FCB514158C36FC351C211C111E1
:102E880004E1050EC05DD8A04BD03EC0C8F03FC0DD
:102E9800C9F040C0CAF041C0CBF00DEC18F040D0EA
:102EA800010ECD6F52D08EC1ECF08FC1EBF04DD03A
:102EB8008EC1EAF08FC1E9F048D08EC1E8F08FC129
:102EC800E7F043D08EC1E6F08FC1E5F03ED07C0E2E
:102ED800A36FFD0EA46FCFC0A5F0A66BFFEC27F083
:102EE80034D0CF51C06FC16BC151000AD8A4EFD7FD
:102EF800C051010AD8B4D7D7030AD8B4D9D7010A20
:102F0800D8B4DBD7070AD8B4DDD7E1D7C30EA36F8F
:102F1800FD0EA46FCCC0A5F0A66BFFEC27F015D072
:102F2800BCEC19F0CC6FCC51C06FC16BC151000A19
:102F3800D8A4ECD7C051000AD8B407D0020AD8B434
:102F4800AFD7010AD8B4CDD7E1D710EC00F011EC17
:102F580012F034D0B40EA36FFE0EA46FE22BE2C0C1
:102F6800A5F0A66BFFEC27F044EC26F0010E0F6EDF
:102F7800F40E0E6E6BEC27F036D0C90EA36FFE0E62
:102F8800A46FE12BE1C0A5F0A66BFFEC27F0ECD70E
:102F9800DE0EA36FFE0EA46FE02BE0C0A5F0A66BBB
:102FA800FFEC27F0E1D7F30EA36FFE0EA46FDF2B23
:102FB800DFC0A5F0A66BFFEC27F0D6D70001CD51F6
:102FC800C06FC16BC151000AD8A40DD0C051010A0D
:102FD800D8B4C0D7030AD8B4D0D7010AD8B4D8D740
:102FE800070AD8B4E0D70001CD51D8A402D0CAAEA0
:102FF80038D7CABEEEEC25F007EC0FF0010E0F6EC5
:10300800F40E0E6E6BEC27F0DEEC26F00BEC20F0E5
:10301800FAD6000EBF6FCAA06DD00E0EE919D8B44B
:1030280069D0EA51030D6F00CCFFB9F06F00D0FFF3
:10303800BAF0E951300DD10EBB6FFF0EBC6FA00E78
:10304800BD6F060EBE6FBB51BD27BC51BE23F350EA
:10305800BD27F450BE23B951BD25D96EBA51BE2142
:10306800DA6E000EDF6EEA51030D6F00CCFFB9F087
:103078006F00D0FFBAF0E951300DD00EBB6FFF0ED4
:10308800BC6FA00EBD6F060EBE6FBB51BD27BC51F5
:10309800BE23F350BD27F450BE23B951BD25D96EC8
:1030A800BA51BE21DA6E000EDF6EEA51030D6F00D1
:1030B800CCFFB9F06F00D0FFBAF0E951300DD20E55
:1030C800BB6FFF0EBC6FA00EBD6F060EBE6FBB516F
:1030D800BD27BC51BE23F350BD27F450BE23B951C0
:1030E800BD25D96EBA51BE21DA6E020EDF6EE92B0C
:1030F800010EBF6FCAA460D0E905D8B45DD0EA510B
:10310800030D6F00CCFFB9F06F00D0FFBAF0E951A2
:10311800300DA00EBB6F060EBC6F310EBB27000E24
:10312800BC23F350BB27F450BC23B951BB25D96E3F
:10313800BA51BC21DA6E000EDF6EEA51030D6F0042
:10314800CCFFB9F06F00D0FFBAF0E951300DA00EF6
:10315800BB6F060EBC6F300EBB27000EBC23F350AE
:10316800BB27F450BC23B951BB25D96EBA51BC2139
:10317800DA6E000EDF6EEA51030D6F00CCFFB9F076
:103188006F00D0FFBAF0E951300DA00EBB6F060EEC
:10319800BC6F320EBB27000EBC23F350BB27F45084
:1031A800BC23B951BB25D96EBA51BC21DA6E020EC7
:1031B800DF6EE907010EBF6FBF51D8B41200E9C036
:1031C800B6F0EA51EBEC24F01200800E8F6E8E50B0
:1031D800E00B800AD8A4FBD7400E916E000E370191
:1031E800006F000E3D6F000EBA6F000EBB6F000E31
:1031F800B86F000EB96F000EBE6F000EBF6F000EE5
:10320800BC6F000EBD6F000E066F000E076F000E3C
:10321800396F000E3A6F000E3B6F000E3C6F000EC8
:10322800316F000E326F000E336F000E346F000ED8
:10323800356F000E366F000E376F000E386F000EB8
:10324800A26F000EA36F000EA06F000EA16F000EFC
:10325800A66F000EA76F000EA46F000EA56F000EDC
:10326800AA6F000EAB6F000EA86F000EA96F000EBC
:10327800AE6F000EAF6F000EAC6F000EAD6F000E9C
:10328800B26F000EB36F000EB06F000EB16F000E7C
:10329800B66F000EB76F000EB46F000EB56F000E5C
:1032A8000A6F000E0B6F000E086F000E096F000EFC
:1032B8000E6F000E0F6F000E0C6F000E0D6F000EDC
:1032C800126F000E136F000E106F000E116F000EBC
:1032D800166F000E176F000E146F000E156F000E9C
:1032E8001A6F000E1B6F000E186F000E196F000E7C
:1032F8001E6F000E1F6F000E1C6F000E1D6F000E5C
:10330800226F000E236F000E206F000E216F000E3B
:10331800266F000E276F000E246F000E256F000E1B
:103328002A6F000E2B6F000E286F000E296F000EFB
:103338002E6F000E2F6F000E2C6F000E2D6F0F0ECC
:10334800036F980E046F010E056F020E0E6E520E7B
:103358000F6EEDEC28F03901A59D958D000E8F6E4E
:103368006F0038FE10F0E00E1016D8B41200F8D72F
:1033780098EC28F00001BA6FBA51D8B4A6D0310E33
:10338800A36FFD0EA46FBAC0A5F0A66BFFEC27F0E3
:10339800880E216E010E226E80EC13F00001BA6FC8
:1033A8008CC1CFF089C1B6F08AC1B7F08BC1B8F033
:1033B8008CC1B9F0140E05D0D890B933B833B733EF
:1033C800B633E82EF9D7B6511F0BD06F01018B51D8
:1033D800070B0001D16F8AC1D2F089C1D3F0570E13
:1033E800A36FFD0EA46FBAC0A5F0A66BFFEC27F083
:1033F800A60EA36FFF0EA46F88C1A5F0A66BFFEC05
:1034080027F0080EA36FFF0EA46F89C1A5F08AC12B
:10341800A6F08BC1A7F08CC1A8F0FFEC27F02E0E08
:10342800A36FFF0EA46FCFC0A5F0A66BFFEC27F02B
:10343800400EA36FFF0EA46FD0C0A5F0A66BFFECE3
:1034480027F09F0EA36FFE0EA46FD1C0A5F0A66B48
:10345800FFEC27F0970EA36FFF0EA46FD2C0A5F064
:10346800A66BFFEC27F0520EA36FFF0EA46FD3C01C
:10347800A5F0A66BFFEC27F0C20EA36FFF0EA46F9A
:103488008DC1A5F0A66BFFEC27F0A70EA36FFC0E6D
:10349800A46F8EC1A5F0A66B8FC1A7F0A86B90C1D1
:1034A800A9F0AA6B91C1ABF0AC6B92C1ADF0AE6B59
:1034B80093C1AFF0B06B94C1B1F0B26B95C1B3F0EA
:1034C800B46BFFEC27F0D3511200000E1200000E6F
:1034D800236E000E226E000E1C6E000E1B6E02D0B4
:1034E800154A162A010E216E600057F0F6FF60009B
:1034F8005BF0F7FFF86A0800F550200AD8B41BD033
:10350800F70E176EFF0E186E600057F0F6FF60009A
:103518005BF0F7FFF86A0800F550196E1A6A175041
:10352800192618501A221A5004E1050E195CD8A061
:1035380002D0000E216E21C01DF01E6A1D501E1003
:10354800D8B408D0CDD7000E1C6E010E1B6E154ADC
:10355800162A34D0600057F0F6FF60005BF0F7FFE2
:10356800F86A0800F550176E186A1850000AD8A4AF
:1035780025D017502B0AD8B4EAD7060AD8B4E3D70F
:103588001DD022C00EF023C00FF0000E116E0A0EDF
:10359800106E81EC27F0600057F0F6FF60005BF0DA
:1035A800F7FFF86A0800F5500E5E000E0F5A300E4D
:1035B8000E24226E000E0F20236EC9D7D00E176E70
:1035C800FF0E186E600057F0F6FF60005BF0F7FF23
:1035D800F86A0800F550196E1A6A1750192618501B
:1035E8001A221A5006E10A0E195CD8B002D0010E50
:1035F80001D0000E1F6E206A1F502010D8A4C1D71A
:103608001B501C10D8A40DD022C017F023C018F0EE
:10361800171E181E174A182A17C015F018C016F0DA
:10362800120022C015F023C016F01200000E1F6E03
:103638001DAE12D01D1E1C1E1B1E1A1E191E181E82
:10364800171E166C000E1722182219221A221B2286
:103658001C221D22010E1F6E15AE12D0151E141E3F
:10366800131E121E111E101E0F1E0E6C000E0F22AE
:10367800102211221222132214221522010E1F1ABF
:1036880020EE20F0070EDE6AE806FDE2165017105D
:10369800181019101A101B101C101D10D8B446D081
:1036A800010E1E6E0AD0D8901636173618361936FF
:1036B8001A361B361C361D361E2A1DAEF4D7D89076
:1036C8002036213622362336243625362636273626
:1036D80016500E5C17500F581850105819501158A2
:1036E8001A5012581B5013581C5014581D50155876
:1036F800D8A011D016500E5E17500F5A1850105AF5
:103708001950115A1A50125A1B50135A1C50145A55
:103718001D50155A2080D8901D321C321B321A3287
:1037280019321832173216321E2EC9D71F50D8B484
:1037380010D0271E261E251E241E231E221E211ED3
:10374800206C000E21222222232224222522262236
:10375800272220C00EF021C00FF022C010F023C095
:1037680011F024C012F025C013F026C014F027C0B1
:1037780015F01200166E000E1D6E000E1E6E000E65
:103788001F6E000E206E1050030B1B6E1038E8429F
:10379800070B1C6E0F50126E136AD8901236133630
:1037A800D89012361336D8901236133612C01DF040
:1037B80013C01EF0000E1EBEFF0E1F6E206E1C50A2
:1037C8001D241D6E000E1E201E6E000E1F201F6E73
:1037D800000E2020206E1DC012F01EC013F01FC066
:1037E80014F020C015F0020ED89012361336143695
:1037F8001536E82EF9D712C01DF013C01EF014C0FC
:103808001FF015C020F01B501D241D6E000E1E2039
:103818001E6E000E1F201F6E000E2020206E1DC081
:1038280013F01EC014F01FC015F0126A12C01DF06C
:1038380013C01EF014C01FF015C020F016501D2430
:103848001D6E000E1E201E6E000E1F201F6E000E25
:103858002020206E1DC013F01EC014F01FC015F0EC
:10386800126A12C01DF013C01EF014C01FF015C05C
:1038780020F00E501D241D6E000E1E201E6E000E20
:103888001F201F6E000E2020206E1DC017F01EC0C6
:1038980018F01FC019F020C01AF017C00EF018C099
:1038A8000FF019C010F01AC011F0120020EEB8F194
:1038B80010EE1EF0060E6F006FFFE3FFE806FBE256
:1038C8001BC029F01CC02AF029502A10D8A403D004
:1038D8001E0E296E2A6A29C00EF02AC00FF03EEC8F
:1038E80027F00EC02DF00FC02EF044C02BF045C0BD
:1038F8002CF02CBE0ED02D502B5C2C50800A1D6E47
:103908002E50800A1D58D8B004D02BC02DF02CC0E2
:103918002EF02DC02BF02EC02CF042C027F043C053
:1039280028F046A00DD016D0000E116E200E106E95
:1039380019C012F01AC013F007EC24F02D4A2E2AF1
:1039480027502D5C2E50800A1D6E2850800A1D5865
:10395800D8A0EAD7000E266E000E256E15D060009E
:10396800A7F0D9FF6000ABF0DAFFDF501D6E1D50E5
:10397800106E116A19C012F01AC013F007EC24F087
:10398800294A2A2A254A262A2B50255C2650800AAD
:103998001D6E2C50800A1D58D8A0E1D746B00DD016
:1039A80016D0000E116E200E106E19C012F01AC03B
:1039B80013F007EC24F02D4A2E2A27502D5C2E50A8
:1039C800800A1D6E2850800A1D58D8A0EAD72DC03D
:1039D80019F02EC01AF01200126E000E136E070EA8
:1039E800146E500E1324D96EDA6A010EDA2214C04E
:1039F80010F0010E116E102A02D0D8901136102E38
:103A0800FCD711500E140009D8B402D0010E01D011
:103A1800000EDF6E1406132A14AEE3D7070E146ED9
:103A2800500E1324D96EDA6A010EDA2214C010F08F
:103A3800010E116E102A02D0D8901136102EFCD724
:103A4800115012140009D8B402D0010E01D0000E92
:103A5800DF6E1406132A14AEE3D7070E146E500E49
:103A68001324D96EDA6A010EDA2214C010F0010E9E
:103A7800116E102A02D0D8901136102EFCD7115092
:103A88000F140009D8B402D0010E01D0000EDF6E69
:103A98001406132A14AEE3D7D29ED29C000E136EDE
:103AA800500E1324D96EDA6A010EDA22DE04D8A485
:103AB8000ED0BB8E00F000F000F000F000F000F037
:103AC80000F000F000F000F000F0BB9E0DD0BB8EBF
:103AD80000F000F000F0BB9E00F000F000F000F0F5
:103AE80000F000F000F000F000F000F000F000F04E
:103AF800132A1350800A680FD8A0D2D7D28ED28C3E
:103B08001200066E000E076E070E086E500E072490
:103B1800D96EDA6A010EDA2208C004F0010E056EC9
:103B2800042A02D0D8900536042EFCD7055002147A
:103B38000009D8B402D0010E01D0000EDF6E0806CD
:103B4800072A08AEE3D7070E086E500E0724D96E71
:103B5800DA6A010EDA2208C004F0010E056E042AA2
:103B680002D0D8900536042EFCD70550061400095B
:103B7800D8B402D0010E01D0000EDF6E0806072A65
:103B880008AEE3D7070E086E500E0724D96EDA6A1E
:103B9800010EDA2208C004F0010E056E042A02D0D4
:103BA800D8900536042EFCD7055003140009D8B464
:103BB80002D0010E01D0000EDF6E0806072A08AEFB
:103BC800E3D7D29ED29C000E076E500E0724D96E02
:103BD800DA6A010EDA22DE04D8A40ED0BB8E00F019
:103BE80000F000F000F000F000F000F000F000F04D
:103BF80000F000F0BB9E0DD0BB8E00F000F000F08E
:103C0800BB9E00F000F000F000F000F000F000F0C3
:103C180000F000F000F000F000F0072A0750800ADA
:103C2800680FD8A0D2D7D28ED28C1200000E1F6E89
:103C380015AE12D0151E141E131E121E111E101EB4
:103C48000F1E0E6C000E0F221022112212221322B8
:103C580014221522010E1F6E1DAE10D01D1E1C1E33
:103C68001B1E1A1E191E181E171E166C000E172270
:103C7800182219221A221B221C221D221650171044
:103C8800181019101A101B101C101D10D8B43CD095
:103C9800010E1E6E0AD0D890163617361836193609
:103CA8001A361B361C361D361E2A1DAEF4D7165082
:103CB8000E5C17500F5818501058195011581A50B8
:103CC80012581B5013581C5014581D501558D8A082
:103CD80010D016500E5E17500F5A1850105A19501F
:103CE800115A1A50125A1B50135A1C50145A1D506C
:103CF800155AD8901D321C321B321A32193218321A
:103D0800173216321E2ED3D71F50D8B410D0151E16
:103D1800141E131E121E111E101E0F1E0E6C000EF6
:103D28000F221022112212221322142215220EC051
:103D38000EF00FC00FF010C010F011C011F012C03B
:103D480012F013C013F014C014F015C015F01200CF
:103D5800020E1218D8A450D01450D96EDA6A600036
:103D68003BF0DFFF0F500E6E10500F6E1150106EAB
:103D7800116A1350D96EDA6A60003BF0DFFF0F500A
:103D88000E6E10500F6E1150106E116A0E50030B0C
:103D98001B6E0EC017F00FC018F010C019F011C03C
:103DA8001AF0030ED8901736183619361A36E82E38
:103DB800F9D717C00EF018C00FF019C010F01AC0CC
:103DC80011F00E50E00B1B241B6E1B50080F1B6ECE
:103DD8001650D96EDA6A1B50EB0BDF6E0F500E6E61
:103DE80010500F6E1150106E116A1550D96EDA6AA4
:103DF80060003BF0DFFF12001350D96EDA6A000E44
:103E0800DF6E1450D96EDA6A000EDF6E0EC017F03E
:103E18000FC018F010C019F011C01AF0050ED89094
:103E28001736183619361A36E82EF9D717C00EF095
:103E380018C00FF019C010F01AC011F01650D96E42
:103E4800DA6A60003BF0DFFFC9D7000E0101C06FDE
:103E5800000EBF6FD1EC25F074EC25F04EEC23F08A
:103E6800C0EC22F0ABEC27F0A1EC28F0E40E0E6ECB
:103E7800400E0F6EE8EC28F0D28ED28C00EC17F0D2
:103E8800640E0001F26F4A0EF36FA00EA36FFD0ED1
:103E9800A46FBFC1A5F0C0C1A6F0FFEC27F0A60E25
:103EA800F26F4A0EF36FE50EA36FFD0EA46FBFC14C
:103EB800A5F0C0C1A6F0FFEC27F00101BF4BC02B55
:103EC800000EC26F000EC16F0001EE51D8B410D0C1
:103ED800000EEE6F640EF26F4A0EF36F580EA36F6A
:103EE800FE0EA46F010EA56F010EA66FFFEC27F062
:103EF800ED51D8B410D0000EED6FA60EF26F4A0E39
:103F0800F36F580EA36FFE0EA46F510EA56F020E2D
:103F1800A66FFFEC27F0150E0001CE6FC60EE82E37
:103F2800FED7CE2FFCD700F00101C14BC22BE80E03
:103F3800C15D030EC259D8B0A3D7C6D70EC015F0BD
:103F48000FC016F010C017F011C018F01206D8A054
:103F5800130612280FE11328D8A40CD0000E0F6EF8
:103F6800000E0E6E1200154A162A174A182A120653
:103F7800D8A01306600057F0F6FF60005BF0F7FF6B
:103F8800F86A0800F5500009D8B427D060005FF03F
:103F9800F6FF600063F0F7FFF86A0800F5500009C3
:103FA800D8B41BD012501310D8B417D0600057F0F3
:103FB800F6FF60005BF0F7FFF86A08006F00D4FFB7
:103FC80014F060005FF0F6FF600063F0F7FFF86A36
:103FD8000800F5501418D8B4C6D7600057F0F6FF9B
:103FE80060005BF0F7FFF86A08006F00D4FF14F078
:103FF80060005FF0F6FF600063F0F7FFF86A080002
:10400800F550145C0E6E0F6AD8A00F061200000E51
:10401800276E000E266E2650030D6F00CCFF22F08F
:104028006F00D0FF23F02750300DA00E246E060E2F
:10403800256E010E2426000E2522F3502426F45066
:10404800252222502424D96E23502520DA6E000E12
:10405800DF6E2650030D6F00CCFF22F06F00D0FFFB
:1040680023F02750300DA00E246E060E256EF35057
:104078002426F450252222502424D96E23502520AA
:10408800DA6E000EDF6E2650030D6F00CCFF22F0B3
:104098006F00D0FF23F02750300DA00E246E060EBF
:1040A800256E020E2426000E2522F3502426F450F5
:1040B800252222502424D96E23502520DA6E020EA0
:1040C800DF6E262A0F0E2664A6D7272A0F0E27642E
:1040D800A0D710EC00F0A3EC08F012000001D451B6
:1040E8003E5C096ED5513F580A6ED65140580B6E4A
:1040F800D75141580C6E09500A100B100C10D8B447
:104108000AD03EC0D4F03FC0D5F040C0D6F041C080
:10411800D7F03B01FC8D5250D8B41CD0F0C002F04F
:10412800F1C003F00001EF5185EC1DF00001F60726
:10413800D8A0F707F651F711D8A414D05250D8A434
:1041480002D0010E01D0000E526E000EF76F010E64
:10415800F66F08D0D9C002F0DAC003F00001D851D8
:1041680085EC1DF00001F407D8A0F507F451F5110E
:10417800D8A40BD05250D8A402D0010E01D0000E02
:10418800526E000EF56F640EF46F010E3E26000E9F
:104198003F22402241221200520EF66E510EF76E57
:1041A800000EF86E00EEB0F110EE0FF009006F008F
:1041B800D7FFEEFFE550E150F9E1610EF66E510EC2
:1041C800F76E000EF86E00EEEFF010EE0BF009003F
:1041D8006F00D7FFEEFFE550E150F9E1040EF66EEF
:1041E800520EF76E000EF86E09006F00D4FF52F001
:1041F80000EEA0F311EE00F2EE6AE550E150FCE1AA
:10420800E250FAE100EE00F3A00EEE6AE806FDE1E6
:1042180000EE00F2F00EEE6AE806FDE100EE00F1B5
:10422800990EEE6AE806FDE100EECFF0200EEE6A88
:10423800E806FDE100EE3EF0120EEE6AE806FDE14A
:10424800080ED56E000ED66E000ED76E000129EF4F
:104258001FF09799A20E0E6E430E0F6EBBEC28F05E
:10426800979B580E0E6E4D0E0F6EB6EC28F0000E92
:104278003D01D46F000ED56F000ED66F000ED76FBC
:10428800000ED86F000ED96FB00EDA6F800EDB6F9C
:10429800000EDC6F8A0EDD6F000EDE6F000EDF6F22
:1042A800000EE06F000EE16F000EE26FFC0E0E6E66
:1042B800510E0F6EC5EC28F0FA0E0E6E510E0F6EF1
:1042C800C0EC28F0E40E0E6E510E0F6ECAEC28F00A
:1042D800000E486E000E4B6E000E4A6E500E000126
:1042E800FC6F010E506E010E0101AF6F000E496E9A
:1042F80039019789120039019397460E0E6E440EC4
:104308000F6ED4EC28F093998A0E0E6E4D0E0F6E38
:10431800CFEC28F0000E3D01EC6F000EED6F000EA3
:10432800EE6F000EEF6F000EF06F000EF16FB00E23
:10433800F26F800EF36F000EF46F8A0EF56F000EA9
:10434800F66F000EF76F000EF86F000EF96F000E93
:10435800FA6F000E0E6E520E0F6EDEEC28F0FE0E97
:104368000E6E510E0F6ED9EC28F0EA0E0E6E510E3D
:104378000F6EE3EC28F0000E4C6E000E4F6E000E30
:104388004E6E500E0001FE6F010E516E010EFD6F54
:10439800000E4D6E390193871200000E5024D96E1D
:1043A800DA6A020EDA22000EDF6E3D01E1A714D0B0
:1043B800000E5024D96EDA6A020EDA220201DF8278
:1043C80001D80AD00500FA6E01019F51FD6EA05177
:1043D800FE6EFF6AFA5012003D01E1B304D00001FD
:1043E800ED51D8B414D0000E5024D96EDA6A020EFA
:1043F800DA220201DF8401D80AD00500FA6E010131
:104408009D51FD6E9E51FE6EFF6AFA501200000E1D
:104418005024D96EDA6A020EDA22DF50D8B40CD0F2
:1044280001D812000500FA6E01019B51FD6E9C51E6
:10443800FE6EFF6AFA5012003DEC24F01200A00E46
:104448005124D96EDA6A020EDA22000EDF6E3D01BF
:10445800F9A714D0A00E5124D96EDA6A020EDA2216
:104468000201DF8201D80AD00500FA6E0101A551C8
:10447800FD6EA651FE6EFF6AFA5012003D01F9B3B7
:1044880004D00001EE51D8B414D0A00E5124D96E36
:10449800DA6A020EDA220201DF8401D80AD00500A6
:1044A800FA6E0101A351FD6EA451FE6EFF6AFA5027
:1044B8001200A00E5124D96EDA6A020EDA22DF50F9
:1044C800D8B40CD001D812000500FA6E0101A15130
:1044D800FD6EA251FE6EFF6AFA5012006DEC24F0D8
:1044E800120046A00AD022C019F023C01AF020C03A
:1044F8001BF021C01CF028EC26F025BE05D024C0F6
:1045080029F025C02AF004D0000E2A6E000E296E6C
:10451800000E286E000E276E0CD0000E116E200EB5
:10452800106E20C012F021C013F007EC24F0274AC7
:10453800282A2950275C2850800A266E2A50800A8B
:104548002658D8A0EAD746B00AD022C019F023C00E
:104558001AF020C01BF021C01CF028EC26F022C065
:104568000EF023C00FF03EEC27F029500E24206EE9
:104578002A500F20216E1200000EDC6F960ED96FA4
:10458800010EDA6F000EDB6F060ED16FA00ED06F32
:10459800E70EDD17DD91DD8BDD51F90B0209DD6FCB
:1045A800DD513F0B4009DD6F000ED86F030ED76F4A
:1045B800000ECF6F150ECE6F3901A69BA699A69F48
:1045C800A69D969B9699969F969D6E004BFFDFFB46
:1045D800000E3B01DE6FDC9D3901550EEF6FAA0E10
:1045E800EF6FEF91030E3901F26F020EF16F000EBB
:1045F800F36F010EF46F040EF76F3901550EEF6F6C
:10460800AA0EEF6FEF813B01DC8F1200390197BBD7
:10461800A7AB0CD001D811000500FA6E0101AB510F
:10462800FD6EAC51FE6EFF6AFA50120097B9A7A949
:104638000CD001D811000500FA6E0101AD51FD6ED4
:10464800AE51FE6EFF6AFA50120095BDA5AD03D0BB
:104658000EEC28F0110093B9A3A90CD001D81100D1
:104668000500FA6E0101A751FD6EA851FE6EFF6AA2
:10467800FA50120093A71100A3A7110001D8110046
:104688000500FA6E0101A951FD6EAA51FE6EFF6A7E
:10469800FA501200000E3B01FC6FA00EF96F030EDA
:1046A800FA6F000EFB6F3D0EF16F110EF06FE70E03
:1046B800FD17FD51F90B0209FD6F3F0EFD17030EA3
:1046C800F86F000EF76F000EEF6F010EEE6FFD81B1
:1046D800FD9B150EFF6F000EFE6FFC9D3901550EF8
:1046E800EF6FAA0EEF6FEF91030E3901F26F020E12
:1046F800F16F000EF36F010EF46F040EF76F3901BE
:10470800550EEF6FAA0EEF6FEF813B01FC8FFC8B0C
:104718001200000EBA6E000EBB6E000EBC6EC268B0
:10472800630EC36ED30EC46E330E3A01606F580E1B
:10473800506F7A0E406F000E816F000E516F000EA1
:10474800416F000E616F000E426F000E526F000E37
:10475800626F436953696369446954696469080EFF
:10476800846F170EEA6F0A0EE06F020E136F1E0EAB
:104778000A6F160EED6F160E0B6F130E0C6F090EE7
:10478800126F330E156F0D0EE76F090EE16F1200F1
:10479800146E1450126E136AD89012361336D890CD
:1047A80012361336D8901236133612C019F013C0C9
:1047B8001AF0000E1ABEFF0E1B6E1C6E0EC012F011
:1047C800050E136ED8901232132EFCD712501924EE
:1047D800196E000E1A201A6E000E1B201B6E000E9A
:1047E8001C201C6E19C015F01AC016F01BC017F05B
:1047F8001CC018F015C00EF016C00FF017C010F04E
:1048080018C011F0120012501310D8B404D012506E
:104818001310D8A404D0105047EC28F0120020EE52
:1048280004F01250D9261350DA22DE50DE10D8B424
:1048380016D020EE04F01250D9261350DA2210EECA
:1048480002F01250E1261350E222DE50E65CE650F8
:10485800800A186EDE50800A1858D8B0120020EE70
:1048680002F01250D9261350DA22DE2A000EDD2279
:104878001200500E5024D96EDA6A020EDA226F0046
:1048880043F7DFFF500E5024D96EDA6A020EDA229F
:104898000A0EDE18D8A40AD04F0E5024D96EDA6A50
:1048A800020EDA220D0EDE18D8B404D04C0E5018C1
:1048B800D8A40DD0510E5024D96EDA6A020EDA222D
:1048C800000EDF6E010E0001ED6F000E506E502AD3
:1048D8001200000E5124D96EDA6A010EDA226F0036
:1048E800A3F7DFFF000E5124D96EDA6A010EDA222F
:1048F8000A0EDE18D8A40AD0FF0E5124D96EDA6A3F
:10490800000EDA220D0EDE18D8B404D04C0E511861
:10491800D8A40DD0010E5124D96EDA6A010EDA221C
:10492800000EDF6E010E0001EE6F000E516E512A6F
:1049380012009EC0A1F09FC0A2F0000EDC6F000E16
:10494800DB6F0FD09CC074F09DC075F0A10E766F20
:10495800A0C077F0EFEC0BF000017451DB27755124
:10496800DC23600087F2F6FF60008BF2F7FFF86A3D
:104978000800F5500009D8A4E5D7DBC09CF0DCC0DE
:104988009DF012009F0E166EFF0E176E14C018F0E1
:1049980015C019F01650182617501922195006E19B
:1049A8001A0E185CD8B002D0010E01D0000E1A6E93
:1049B8001B6A1A501B10D8B405D05F0E1414146E5D
:1049C800156A120014C014F015C015F01200B76F64
:1049D800020E0101886F030E896F000E8A6F000EA8
:1049E8008B6F020E8C6F020E8D6FB7C08EF1B6C042
:1049F8008FF1880E1C6E010E1D6E8EEC10F00001FA
:104A0800B86F070EA36FFE0EA46FB8C0A5F0A66B13
:104A1800FFEC27F01200020E0101886F040E896F67
:104A2800000E8A6F000E8B6F000E8C6F020E8D6F5A
:104A3800E4C08EF1E3C08FF1880E1C6E010E1D6E6E
:104A48008EEC10F00001B66F070EA36FFE0EA46F78
:104A5800B6C0A5F0A66BFFEC27F012000E6E0001A1
:104A6800FE51D8B4FCD7390193B904D060003BF0AB
:104A7800EAFD12D09399500E4F24D96EDA6A030ECC
:104A8800DA2260003BF0DFFF4F2A4F0E4F6402D05E
:104A9800000E4F6E0001FE073901938912000E6E59
:104AA8000001FC51D8B4FCD7390197BB04D0600091
:104AB8003BF0D2FD12D0979B000E4B24D96EDA6AD8
:104AC800030EDA2260003BF0DFFF4B2A4F0E4B64E7
:104AD80002D0000E4B6E0001FC073901978B1200C3
:104AE800030E3D01146F000E156F020E166F000EB7
:104AF800186F050E1C6F000E196FC3823A01509390
:104B0800090EE16FC39450950A0EE06F1E0E0A6FEE
:104B1800010E3D01126F000E136F148F1200430E29
:104B2800B96EB10EB76EE00EB66EB6506F00DCFE11
:104B380010F0116A10C011F0106A10100001FA6F1D
:104B48001150FB6F3901A39F938FF80E0E6E510E13
:104B58000F6EE8EC28F0900EB86E1200010E146E7D
:104B6800200E0E180F10D8B414D0F70E106EFF0ECA
:104B7800116E0EC012F00FC013F010501226115013
:104B88001322135004E1050E125CD8A002D0000EC7
:104B9800146E14C00EF00F6A12008FEC28F0BEECF1
:104BA80027F08DEC23F06EEC28F055EC27F0F0ECB4
:104BB80027F01DEC28F093EC25F062EC28F07AEC55
:104BC80028F07FEC21F02DEC21F02BEC28F0E9EC1B
:104BD80018F01200020E0101886F020E896F000E94
:104BE8008A6F000E8B6F000E8C6F880E1C6E010E84
:104BF8001D6E8EEC10F00001B66F070EA36FFE0E4F
:104C0800A46FB6C0A5F0A66BFFEC27F01200020E49
:104C18000101886F010E896F000E8A6F000E8B6F7D
:104C2800000E8C6F880E1C6E010E1D6E8EEC10F03F
:104C38000001B66F070EA36FFE0EA46FB6C0A5F0F5
:104C4800A66BFFEC27F01200000E1F6E000E1E6E02
:104C58000BD01DC010F0116A1BC012F01CC013F05D
:104C680007EC24F01E4A1F2A1E501924D96E1F5023
:104C78001A20DA6EDF501D6E1D50D8B41200E9D725
:104C8800F8EC28F0280E136E010E106E135096ECF7
:104C980027F0000E0F6E050E0E6E6BEC27F0130654
:104CA8000B0E1360F1D7000E106E280E96EC27F04D
:104CB800FAEC28F012009F0E106EFF0E116E200EF7
:104CC8000E10126E000E0F10136E10501226115097
:104CD8001322135006E11A0E125CD8B002D0010E4E
:104CE80001D0000E0E6E0F6A1200FF0E0E16030E94
:104CF8000F167EA80DD0060ED8900E360F36E82E69
:104D0800FBD760003FF07DFF60003BF07CFF1200A6
:104D180060003FF07DFF60003BF07CFF120021BE89
:104D280005D0215010E12004D8B00DD020C022F0C9
:104D380021C023F0221E231E224A232A22C020F04B
:104D480023C021F0120020C020F021C021F0120061
:104D5800500E0001FC6112D0000E4A24D96EDA6AA6
:104D6800030EDA22DF503D01D26F4A2A4F0E4A6401
:104D780002D0000E4A6E0001FC2B12003901979BED
:104D88001200500E0001FE6112D0500E4E24D96E52
:104D9800DA6A030EDA22DF503D01EA6F4E2A4F0E1F
:104DA8004E6402D0000E4E6E0001FE2B1200390137
:104DB80093991200080E0001EC6F000EEB6F0F0EB6
:104DC800EA6F080EE96F080EE86F0F0EE76F000E26
:104DD800E66F080EE56F000EF86F080EE46F080E18
:104DE800E36F12009F0E106EFF0E116E0EC012F0D0
:104DF8000FC013F01050122611501322135006E161
:104E08001A0E125CD8B002D0010E01D0000E0E6E40
:104E18000F6A1200BF0E106EFF0E116E0EC012F058
:104E28000FC013F01050122611501322135006E130
:104E38001A0E125CD8B002D0010E01D0000E0E6E10
:104E48000F6A1200D00E106EFF0E116E0EC012F017
:104E58000FC013F01050122611501322135006E100
:104E68000A0E125CD8B002D0010E01D0000E0E6EF0
:104E78000F6A12000EC010F00FC011F002D00E4AD7
:104E88000F2A60003BF0D9FF60003FF0DAFFDF50E7
:104E9800D8A4F5D710500E5C0E6E11500F580F6E37
:104EA8001200000E3C016B6F190E6C6F2D0E6D6FAA
:104EB8002C0E6E6F190E6F6F080E706F220E716FC9
:104EC800200E726F800E736F800E6A6F1200000ED4
:104ED800126E000E116E0AD0150E106EC60EE82E58
:104EE800FED7102EFCD700D0114A122A0E50115CA2
:104EF8000F501258D8B01200EFD70E5010026F00A2
:104F0800CCFF12F06F00D0FF13F00E501102F350D7
:104F180013260F501002F350132612C00EF013C0C0
:104F28000FF01200116E600047F09FFF1004D8A424
:104F380007D0000E0F6E630E0E6E79EC26F012008D
:104F4800000E0F6E000E0E6E79EC26F01200000EA9
:104F5800146E640E136ECFEC27F0000E0F6E320E37
:104F68000E6E6BEC27F0000E146E640E136ECFEC11
:104F780027F01200000EC06F000EC16F000EC26F46
:104F8800000EC36F000EC46F000EC56F000EC66F13
:104F9800000EC76F1200010E106E640E96EC27F01B
:104FA80013C00EF014C00FF06BEC27F0000E106E5B
:104FB800640E96EC27F01200010199519A11D8B4A9
:104FC800120001D812000500FA6E9951FD6E9A512F
:104FD800FE6EFF6AFA501200010EA26E000EA16E5C
:104FE800000EA36E310E9F6E000E9E6E3901A895BD
:104FF800E00EA06E1200A50EB56F000E9C6F000E9D
:105008009D6FA3C09EF0A4C09FF0B50EA06F9DEC4D
:1050180024F0120001D80AD00500FA6E0001DD5113
:10502800FD6EDE51FE6EFF6AFA5012003901A59D31
:105038001200010EAE6E000EAD6E000EAF6E090EC0
:10504800AB6E000EAA6EA495800EAC6E1200020E16
:105058003D01146F000E156F000E166F050E1C6FC4
:10506800000E196FC394148F1200DEEC26F00BECBF
:1050780020F0000E0001DF6FDFC0E0F0E0C0E1F0DB
:10508800E1C0E2F012000F6E01D812000500FA6EBE
:105098000001F251FD6EF351FE6EFF6AFA500F5097
:1050A80012006F0060FF0DF0390193BFA3AF02D06B
:1050B80085EC28F0600037F0D8FF11008C0E7E6E6A
:1050C800000E7D6E630E7C6E3F015E51FC0B020983
:1050D8005E6F1200600E3901D96F000EDB6F000E93
:1050E800DD6F080EDF6F000EDE6F1200800E6E6E31
:1050F800040E6D6EC00E6C6E5F51FC0B01095F6F84
:105108001200A39F6000EFF3B7FF6000EBF3B6FF58
:10511800E0EC27F01200D28A3901878B8789858DC8
:1051280083898387839F1200000E0E6E80BE0E2A2D
:105138003701F0BF0E2A0E501200000E0E6E000E40
:105148000F6E000EF0EC1CF01200010000010100CF
:105158000001286E756C6C290000FF00644A640029
:10516800010003020EC0ABF10FC0ACF112000EC07B
:10517800ADF10FC0AEF112000EC09DF10FC09EF14F
:1051880012000EC09FF10FC0A0F112000EC09BF1DB
:105198000FC09CF112000EC0A7F10FC0A8F11200B9
:1051A8000EC0A9F10FC0AAF112000EC0A3F10FC0E2
:1051B800A4F112000EC0A5F10FC0A6F112000EC096
:1051C800A1F10FC0A2F112000EC099F10FC09AF11F
:1051D80012000EC0DDF00FC0DEF012003DEC24F02E
:1051E80012006DEC24F01200B89E1200B88E120066
:0D51F800120012001200120012001200013D
:10FC6400000200000000504C41594552313D2564CA
:10FC74002C25642020504C41594552323D25642C9A
:10FC840025642020504C41594552333D25642C2590
:10FC9400642020504C41594552343D25642C256440
:10FCA4000D0A00446174613A202530325820253011
:10FCB4003258202530325820253032582025303211
:10FCC40058202530325820253032582025303258DB
:10FCD4000D0A0D0A00444D4132535054523D253013
:10FCE40032782530327825303278202020444D4136
:10FCF40032445054523D25303278253032780D0A42
:10FD04000D0A00444D41325353413D25303278258C
:10FD140030327825303278202020444D413244530B
:10FD2400413D25303278253032780D0A004E756D0C
:10FD3400626572206F662043414E206D6573736166
:10FD440067657320696E206275666665723D256419
:10FD54000D0A0056616C75652072657475726E6566
:10FD640064206275792043414E5F726563656976EC
:10FD7400653A2025640D0A0043414E204552524FF6
:10FD84005220706C61796572206964202D20736F34
:10FD94007572636549443D25640D0A002530356458
:10FDA400202D5369656D656E732055415254312081
:10FDB400285553422D53657269616C290D0A00431D
:10FDC400414E204552524F52206D73672074797012
:10FDD40065202D207265745F63616E3D25640D0A94
:10FDE4000025303564202D5369656D656E7320558B
:10FDF400415254322028426C7565746F6F746829BF
:10FE04000D0A0043414E207472616E736D697474FF
:10FE14006564207374617475733D25640D0A0D0A5D
:10FE240000583D256420593D2564204449523D2510
:10FE340064205B25645D0D0A0D0A00202023253013
:10FE44003364202530327820253032782025303232
:10FE5400780D0A004E4557204D45535341474520E0
:10FE640052454345495645443A20257300583D259B
:10FE74006420593D2564204449523D2564205B2576
:10FE8400645D0D0A0044474F3D2564202049463DEA
:10FE9400256420454E3D25640D0A002020696E73BB
:10FEA4007472756374696F6E3D253032580D0A00A3
:10FEB400504C4159455231204C4F4F5345533A20F1
:10FEC40025640D0A00504C4159455232204C4F4F85
:10FED4005345533A2025640D0A00504C415945526C
:10FEE40033204C4F4F5345533A2025640D0A00509C
:10FEF4004C4159455234204C4F4F5345533A2025D9
:10FF0400640D0A00696428333262697473292025F8
:10FF140030386C780D0A00202025303278202530C6
:10FF2400327820253032780D0A002020736F7572E4
:10FF3400636549443D253032580D0A002020746120
:10FF44007267657449443D253032580D0A002020FB
:10FF5400737562696E6465783D253032580D0A0008
:10FF64005072657373205354415254204B45590DBC
:10FF74000A00506978656C41727261795B5D5B5D02
:10FF84000D0A0047414D45205354415254454421E4
:10FF94000D0A002020696E6465783D253032580DC5
:10FFA4000A006964547970653D253032580D0A00A1
:10FFB400506978656C426173655B5D0D0A00646C21
:10FFC400633D253032580D0A0057484954450D0AFF
:10FFD40000424C41434B0D0A00475245454E0D0A21
:10FFE40000424C55450D0A005245440D0A006C5818
:0BFFF400006C64006C69006C78000079
:020000040020DA
:10000000FF0FFF0FFF0FFF0FFF0FFF0FFF0FFF0F80
:020000040030CA
:0A0000008CFFF7FF9FFFFFDFFFFFFB
:00000001FF
